{
  "_format": "hh-sol-artifact-1",
  "contractName": "PredictTheFutureFactory",
  "sourceName": "contracts/levels/PredictTheFutureFactory.sol",
  "abi": [
    {
      "inputs": [
        {
          "internalType": "address",
          "name": "",
          "type": "address"
        }
      ],
      "name": "createInstance",
      "outputs": [
        {
          "internalType": "address",
          "name": "",
          "type": "address"
        }
      ],
      "stateMutability": "payable",
      "type": "function"
    },
    {
      "inputs": [],
      "name": "insertCoin",
      "outputs": [
        {
          "internalType": "uint256",
          "name": "",
          "type": "uint256"
        }
      ],
      "stateMutability": "view",
      "type": "function"
    },
    {
      "inputs": [
        {
          "internalType": "address payable",
          "name": "_instance",
          "type": "address"
        },
        {
          "internalType": "address",
          "name": "",
          "type": "address"
        }
      ],
      "name": "validateInstance",
      "outputs": [
        {
          "internalType": "bool",
          "name": "",
          "type": "bool"
        }
      ],
      "stateMutability": "view",
      "type": "function"
    }
  ],
  "bytecode": "0x6080604052662386f26fc1000060005534801561001b57600080fd5b5061063c8061002b6000396000f3fe6080604052600436106100345760003560e01c80637726f7761461003957806390696af914610076578063d38def5b1461009a575b600080fd5b61004c6100473660046101b5565b6100e1565b60405173ffffffffffffffffffffffffffffffffffffffff90911681526020015b60405180910390f35b34801561008257600080fd5b5061008c60005481565b60405190815260200161006d565b3480156100a657600080fd5b506100d16100b53660046101d9565b5073ffffffffffffffffffffffffffffffffffffffff16311590565b604051901515815260200161006d565b60008054341015610152576040517f08c379a000000000000000000000000000000000000000000000000000000000815260206004820152601b60248201527f4d7573742073656e64206174206c6561737420302e3031204554480000000000604482015260640160405180910390fd5b3460405161015f90610183565b6040518091039082f090508015801561017c573d6000803e3d6000fd5b5092915050565b6103f48061021383390190565b73ffffffffffffffffffffffffffffffffffffffff811681146101b257600080fd5b50565b6000602082840312156101c757600080fd5b81356101d281610190565b9392505050565b600080604083850312156101ec57600080fd5b82356101f781610190565b9150602083013561020781610190565b80915050925092905056fe608060405234662386f26fc100001461001757600080fd5b6103ce806100266000396000f3fe60806040526004361061003f5760003560e01c806348db5f89146100445780634fb602511461009b57806356e1479a146100b2578063a28b749a146100c5575b600080fd5b34801561005057600080fd5b506000546100719073ffffffffffffffffffffffffffffffffffffffff1681565b60405173ffffffffffffffffffffffffffffffffffffffff90911681526020015b60405180910390f35b3480156100a757600080fd5b506100b06100f8565b005b6100b06100c0366004610307565b610269565b3480156100d157600080fd5b506000546100e690600160a01b900460ff1681565b60405160ff9091168152602001610092565b60005473ffffffffffffffffffffffffffffffffffffffff1633146101645760405162461bcd60e51b815260206004820152600a60248201527f57726f6e6720757365720000000000000000000000000000000000000000000060448201526064015b60405180910390fd5b60015443116101b55760405162461bcd60e51b815260206004820152601a60248201527f4e65656420746f2063616c6c206174206e65787420626c6f636b000000000000604482015260640161015b565b6000600a6101c4600143610347565b604080519140602083015242908201526060016040516020818303038152906040528051906020012060001c6101fa919061035e565b600080547fffffffffffffffffffffffff00000000000000000000000000000000000000001690819055909150600160a01b900460ff168114156102665760405133904780156108fc02916000818181858888f19350505050158015610264573d6000803e3d6000fd5b505b50565b60005473ffffffffffffffffffffffffffffffffffffffff161561028c57600080fd5b34662386f26fc100001461029f57600080fd5b600080547fffffffffffffffffffffff00000000000000000000000000000000000000000016337fffffffffffffffffffffff00ffffffffffffffffffffffffffffffffffffffff1617600160a01b60ff841602179055610301436001610380565b60015550565b60006020828403121561031957600080fd5b813560ff8116811461032a57600080fd5b9392505050565b634e487b7160e01b600052601160045260246000fd5b60008282101561035957610359610331565b500390565b60008261037b57634e487b7160e01b600052601260045260246000fd5b500690565b6000821982111561039357610393610331565b50019056fea26469706673582212208ce570299b0b0dbeabce7b1ad1fc01c1190118b1a9a0a6f63c30132f5f2460a064736f6c634300080c0033a26469706673582212202977073fcc92afbb8ba93c408fbfb6306d8394606a2b0785d74feb1b8422ecec64736f6c634300080c0033",
  "linkReferences": {},
  "deployedLinkReferences": {}
}