{
  "_format": "hh-sol-artifact-1",
  "contractName": "LiftAttack",
  "sourceName": "contracts/attacks/LiftAttack.sol",
  "abi": [
    {
      "inputs": [
        {
          "internalType": "address",
          "name": "_lift",
          "type": "address"
        }
      ],
      "stateMutability": "nonpayable",
      "type": "constructor"
    },
    {
      "inputs": [
        {
          "internalType": "uint256",
          "name": "_floor",
          "type": "uint256"
        }
      ],
      "name": "callLift",
      "outputs": [],
      "stateMutability": "nonpayable",
      "type": "function"
    },
    {
      "inputs": [],
      "name": "isTop",
      "outputs": [
        {
          "internalType": "bool",
          "name": "",
          "type": "bool"
        }
      ],
      "stateMutability": "view",
      "type": "function"
    },
    {
      "inputs": [
        {
          "internalType": "uint256",
          "name": "",
          "type": "uint256"
        }
      ],
      "name": "isTopFloor",
      "outputs": [
        {
          "internalType": "bool",
          "name": "",
          "type": "bool"
        }
      ],
      "stateMutability": "nonpayable",
      "type": "function"
    }
  ],
  "bytecode": "0x60806040526000805460ff1916600117905534801561001d57600080fd5b5060405161022438038061022483398101604081905261003c91610067565b600080546001600160a01b0390921661010002610100600160a81b0319909216919091179055610097565b60006020828403121561007957600080fd5b81516001600160a01b038116811461009057600080fd5b9392505050565b61017e806100a66000396000f3fe608060405234801561001057600080fd5b50600436106100415760003560e01c80632f8cd65014610046578063998fa67b14610082578063f4a4394c14610097575b600080fd5b61006e61005436600461012f565b506000805460ff19811660ff918216159081179092551690565b604051901515815260200160405180910390f35b61009561009036600461012f565b6100a4565b005b60005461006e9060ff1681565b6000546040517fcaea459d0000000000000000000000000000000000000000000000000000000081526004810183905261010090910473ffffffffffffffffffffffffffffffffffffffff169063caea459d90602401600060405180830381600087803b15801561011457600080fd5b505af1158015610128573d6000803e3d6000fd5b5050505050565b60006020828403121561014157600080fd5b503591905056fea2646970667358221220c8476b968502f6990579d8e18a5d681320463a4315baaaa3e07b72767d001dd764736f6c634300080c0033",
  "linkReferences": {},
  "deployedLinkReferences": {}
}