{
  "_format": "hh-sol-artifact-1",
  "contractName": "Factory",
  "sourceName": "contracts/factory/LocalFactory.sol",
  "abi": [
    {
      "inputs": [],
      "stateMutability": "nonpayable",
      "type": "constructor"
    },
    {
      "anonymous": false,
      "inputs": [
        {
          "indexed": true,
          "internalType": "address",
          "name": "previousOwner",
          "type": "address"
        },
        {
          "indexed": true,
          "internalType": "address",
          "name": "newOwner",
          "type": "address"
        }
      ],
      "name": "OwnershipTransferred",
      "type": "event"
    },
    {
      "inputs": [],
      "name": "ethernaut",
      "outputs": [
        {
          "internalType": "contract Ethernaut",
          "name": "",
          "type": "address"
        }
      ],
      "stateMutability": "view",
      "type": "function"
    },
    {
      "inputs": [],
      "name": "implementation",
      "outputs": [
        {
          "internalType": "contract Statistics",
          "name": "",
          "type": "address"
        }
      ],
      "stateMutability": "view",
      "type": "function"
    },
    {
      "inputs": [],
      "name": "owner",
      "outputs": [
        {
          "internalType": "address",
          "name": "",
          "type": "address"
        }
      ],
      "stateMutability": "view",
      "type": "function"
    },
    {
      "inputs": [],
      "name": "proxyAdmin",
      "outputs": [
        {
          "internalType": "contract ProxyAdmin",
          "name": "",
          "type": "address"
        }
      ],
      "stateMutability": "view",
      "type": "function"
    },
    {
      "inputs": [],
      "name": "proxyStats",
      "outputs": [
        {
          "internalType": "contract ProxyStats",
          "name": "",
          "type": "address"
        }
      ],
      "stateMutability": "view",
      "type": "function"
    },
    {
      "inputs": [
        {
          "internalType": "address",
          "name": "_level",
          "type": "address"
        }
      ],
      "name": "registerLevel",
      "outputs": [],
      "stateMutability": "nonpayable",
      "type": "function"
    },
    {
      "inputs": [],
      "name": "renounceOwnership",
      "outputs": [],
      "stateMutability": "nonpayable",
      "type": "function"
    },
    {
      "inputs": [
        {
          "internalType": "address",
          "name": "newOwner",
          "type": "address"
        }
      ],
      "name": "transferOwnership",
      "outputs": [],
      "stateMutability": "nonpayable",
      "type": "function"
    }
  ],
  "bytecode": "0x608060405234801561001057600080fd5b5061001a336101e8565b60405161002690610238565b604051809103906000f080158015610042573d6000803e3d6000fd5b50600180546001600160a01b0319166001600160a01b039290921691909117905560405161006f90610245565b604051809103906000f08015801561008b573d6000803e3d6000fd5b50600280546001600160a01b0319166001600160a01b03929092169190911790556040516100b890610252565b604051809103906000f0801580156100d4573d6000803e3d6000fd5b50600380546001600160a01b0319166001600160a01b0392831690811790915560025460015460405192939182169291169061010f9061025f565b6001600160a01b03938416815291831660208301529091166040820152606001604051809103906000f08015801561014b573d6000803e3d6000fd5b50600480546001600160a01b0319166001600160a01b03928316908117825560015460405163be117dfd60e01b8152928301919091529091169063be117dfd90602401600060405180830381600087803b1580156101a857600080fd5b505af11580156101bc573d6000803e3d6000fd5b5050600454600380546001600160a01b0319166001600160a01b039092169190911790555061026c9050565b600080546001600160a01b038381166001600160a01b0319831681178455604051919092169283917f8be0079c531659141344cd1fd0a4f28419497f9722a3daafe3b4186f6b6457e09190a35050565b6110078061060583390190565b6107de8061160c83390190565b611efa80611dea83390190565b610eb480613ce483390190565b61038a8061027b6000396000f3fe608060405234801561001057600080fd5b50600436106100885760003560e01c8063715018a61161005b578063715018a6146100f75780638da5cb5b146100ff578063a7e1acdf14610110578063f2fde38b1461012357600080fd5b8063202023d41461008d5780633e47158c146100a25780635c60da1b146100d15780636adb97c8146100e4575b600080fd5b6100a061009b366004610324565b610136565b005b6002546100b5906001600160a01b031681565b6040516001600160a01b03909116815260200160405180910390f35b6003546100b5906001600160a01b031681565b6004546100b5906001600160a01b031681565b6100a06101b9565b6000546001600160a01b03166100b5565b6001546100b5906001600160a01b031681565b6100a0610131366004610324565b6101cd565b61013e610262565b6001546040517f202023d40000000000000000000000000000000000000000000000000000000081526001600160a01b0383811660048301529091169063202023d490602401600060405180830381600087803b15801561019e57600080fd5b505af11580156101b2573d6000803e3d6000fd5b5050505050565b6101c1610262565b6101cb60006102bc565b565b6101d5610262565b6001600160a01b0381166102565760405162461bcd60e51b815260206004820152602660248201527f4f776e61626c653a206e6577206f776e657220697320746865207a65726f206160448201527f646472657373000000000000000000000000000000000000000000000000000060648201526084015b60405180910390fd5b61025f816102bc565b50565b6000546001600160a01b031633146101cb5760405162461bcd60e51b815260206004820181905260248201527f4f776e61626c653a2063616c6c6572206973206e6f7420746865206f776e6572604482015260640161024d565b600080546001600160a01b038381167fffffffffffffffffffffffff0000000000000000000000000000000000000000831681178455604051919092169283917f8be0079c531659141344cd1fd0a4f28419497f9722a3daafe3b4186f6b6457e09190a35050565b60006020828403121561033657600080fd5b81356001600160a01b038116811461034d57600080fd5b939250505056fea264697066735822122014f809ba26415dac0a92c96408a4508709ce4b2f5a584415eb7d160a6973a73564736f6c634300080c00336080604052600080546001600160a01b03191673fd07850df7036ba07efb2de6229460e7e1c8235517905534801561003657600080fd5b50610fc1806100466000396000f3fe6080604052600436106100c75760003560e01c806395e272bd11610074578063c882d7c21161004e578063c882d7c214610273578063cf00469514610293578063dfc86b17146102c357600080fd5b806395e272bd146101fb578063ae64d9db14610233578063be117dfd1461025357600080fd5b80634f17afd8116100a55780634f17afd81461013857806375c78454146101ad5780638a55d36e146101da57600080fd5b8063202023d4146100cc57806335975a37146100ee5780633ffbd47f14610103575b600080fd5b3480156100d857600080fd5b506100ec6100e7366004610cc7565b6102d6565b005b3480156100fa57600080fd5b506100ec6103ce565b34801561010f57600080fd5b5061012361011e366004610d8e565b610449565b60405190151581526020015b60405180910390f35b34801561014457600080fd5b50610185610153366004610cc7565b600560205260009081526040902080546001909101546001600160a01b0391821691811690600160a01b900460ff1683565b604080516001600160a01b03948516815293909216602084015215159082015260600161012f565b3480156101b957600080fd5b506101cd6101c8366004610cc7565b6104ce565b60405161012f9190610df2565b3480156101e657600080fd5b5060005461012390600160a01b900460ff1681565b34801561020757600080fd5b5060015461021b906001600160a01b031681565b6040516001600160a01b03909116815260200161012f565b34801561023f57600080fd5b506101cd61024e366004610cc7565b610568565b34801561025f57600080fd5b506100ec61026e366004610cc7565b610581565b34801561027f57600080fd5b506100ec61028e366004610cc7565b61060a565b34801561029f57600080fd5b506101236102ae366004610cc7565b60026020526000908152604090205460ff1681565b6100ec6102d1366004610cc7565b61096f565b6000546001600160a01b031633146103355760405162461bcd60e51b815260206004820152601560248201527f596f7520617265206e6f7420746865206f776e6572000000000000000000000060448201526064015b60405180910390fd5b6001600160a01b0381811660008181526002602052604090819020805460ff191660019081179091555490517fcd819a6f00000000000000000000000000000000000000000000000000000000815260048101929092529091169063cd819a6f90602401600060405180830381600087803b1580156103b357600080fd5b505af11580156103c7573d6000803e3d6000fd5b5050505050565b6000546001600160a01b031633146104285760405162461bcd60e51b815260206004820152601560248201527f596f7520617265206e6f7420746865206f776e65720000000000000000000000604482015260640161032c565b6000805460ff60a01b198116600160a01b9182900460ff1615909102179055565b60008083511180156104745750336000908152600360205260409020805461047090610e47565b1590505b156104c457336000908152600360209081526040909120845161049992860190610c16565b5033600090815260046020908152604090912083516104ba92850190610c16565b50600190506104c8565b5060005b92915050565b600360205260009081526040902080546104e790610e47565b80601f016020809104026020016040519081016040528092919081815260200182805461051390610e47565b80156105605780601f1061053557610100808354040283529160200191610560565b820191906000526020600020905b81548152906001019060200180831161054357829003601f168201915b505050505081565b600460205260009081526040902080546104e790610e47565b6000546001600160a01b031633146105db5760405162461bcd60e51b815260206004820152601560248201527f596f7520617265206e6f7420746865206f776e65720000000000000000000000604482015260640161032c565b6001805473ffffffffffffffffffffffffffffffffffffffff19166001600160a01b0392909216919091179055565b600054600160a01b900460ff166106635760405162461bcd60e51b815260206004820152601160248201527f435446206e6f7420796574207374617274000000000000000000000000000000604482015260640161032c565b6001600160a01b038082166000908152600560205260409020805490911633146106f55760405162461bcd60e51b815260206004820152603060248201527f5468697320696e7374616e636520646f65736e27742062656c6f6e6720746f2060448201527f7468652063757272656e74207573657200000000000000000000000000000000606482015260840161032c565b6001810154600160a01b900460ff16156107515760405162461bcd60e51b815260206004820181905260248201527f4c6576656c20686173206265656e20636f6d706c6574656420616c7265616479604482015260640161032c565b60018101546040517fd38def5b0000000000000000000000000000000000000000000000000000000081526001600160a01b0384811660048301523360248301529091169063d38def5b906044016020604051808303816000875af11580156107be573d6000803e3d6000fd5b505050506040513d601f19601f820116820180604052508101906107e29190610e82565b156108e15760018181018054600160a01b60ff60a01b1982161790915590546040517f2c038c320000000000000000000000000000000000000000000000000000000081526001600160a01b0385811660048301529283166024820152336044820152911690632c038c3290606401600060405180830381600087803b15801561086b57600080fd5b505af115801561087f573d6000803e3d6000fd5b5050505060018101543360008181526003602052604090819020905191927f3af56f6cc95f227ffda754d8786659d55c207a50131690d5140c647b8379a903926108d5926001600160a01b039092169190610f44565b60405180910390a25050565b60018054908201546040517fd0f191e00000000000000000000000000000000000000000000000000000000081526001600160a01b038581166004830152918216602482015233604482015291169063d0f191e090606401600060405180830381600087803b15801561095357600080fd5b505af1158015610967573d6000803e3d6000fd5b505050505050565b600054600160a01b900460ff166109c85760405162461bcd60e51b815260206004820152601160248201527f435446206e6f7420796574207374617274000000000000000000000000000000604482015260640161032c565b6001600160a01b03811660009081526002602052604090205460ff16610a305760405162461bcd60e51b815260206004820152601960248201527f54686973206c6576656c20646f65736e27742065786973747300000000000000604482015260640161032c565b6040517f7726f7760000000000000000000000000000000000000000000000000000000081523360048201526000906001600160a01b03831690637726f77690349060240160206040518083038185885af1158015610a93573d6000803e3d6000fd5b50505050506040513d601f19601f82011682018060405250810190610ab89190610f6e565b60408051606081018252338082526001600160a01b03868116602080850182815260008688018181528986168083526005909452908890209651875473ffffffffffffffffffffffffffffffffffffffff191690861617875590516001968701805492519186167fffffffffffffffffffffff00000000000000000000000000000000000000000090931692909217600160a01b91151591909102179055935494517f7e4326d3000000000000000000000000000000000000000000000000000000008152600481019490945260248401526044830191909152929350911690637e4326d390606401600060405180830381600087803b158015610bbb57600080fd5b505af1158015610bcf573d6000803e3d6000fd5b5050336000818152600360205260409081902090519193507f99b2d7cef2248ef47df1daa66490880371ee06b32e4ec2da8a9487d39f4129a392506108d591859190610f44565b828054610c2290610e47565b90600052602060002090601f016020900481019282610c445760008555610c8a565b82601f10610c5d57805160ff1916838001178555610c8a565b82800160010185558215610c8a579182015b82811115610c8a578251825591602001919060010190610c6f565b50610c96929150610c9a565b5090565b5b80821115610c965760008155600101610c9b565b6001600160a01b0381168114610cc457600080fd5b50565b600060208284031215610cd957600080fd5b8135610ce481610caf565b9392505050565b634e487b7160e01b600052604160045260246000fd5b600082601f830112610d1257600080fd5b813567ffffffffffffffff80821115610d2d57610d2d610ceb565b604051601f8301601f19908116603f01168101908282118183101715610d5557610d55610ceb565b81604052838152866020858801011115610d6e57600080fd5b836020870160208301376000602085830101528094505050505092915050565b60008060408385031215610da157600080fd5b823567ffffffffffffffff80821115610db957600080fd5b610dc586838701610d01565b93506020850135915080821115610ddb57600080fd5b50610de885828601610d01565b9150509250929050565b600060208083528351808285015260005b81811015610e1f57858101830151858201604001528201610e03565b81811115610e31576000604083870101525b50601f01601f1916929092016040019392505050565b600181811c90821680610e5b57607f821691505b60208210811415610e7c57634e487b7160e01b600052602260045260246000fd5b50919050565b600060208284031215610e9457600080fd5b81518015158114610ce457600080fd5b8054600090600181811c9080831680610ebe57607f831692505b6020808410821415610ee057634e487b7160e01b600052602260045260246000fd5b83885260208801828015610efb5760018114610f0c57610f37565b60ff19871682528282019750610f37565b60008981526020902060005b87811015610f3157815484820152908601908401610f18565b83019850505b5050505050505092915050565b6001600160a01b0383168152604060208201526000610f666040830184610ea4565b949350505050565b600060208284031215610f8057600080fd5b8151610ce481610caf56fea26469706673582212206acded2a68eb64c39aa1f21b82ed111bcd95f5285152709a46d360e5a2fc08be64736f6c634300080c0033608060405234801561001057600080fd5b5061001a3361001f565b61006f565b600080546001600160a01b038381166001600160a01b0319831681178455604051919092169283917f8be0079c531659141344cd1fd0a4f28419497f9722a3daafe3b4186f6b6457e09190a35050565b6107608061007e6000396000f3fe60806040526004361061007b5760003560e01c80639623609d1161004e5780639623609d1461011157806399a88ec414610124578063f2fde38b14610144578063f3b7dead1461016457600080fd5b8063204e1c7a14610080578063715018a6146100bc5780637eff275e146100d35780638da5cb5b146100f3575b600080fd5b34801561008c57600080fd5b506100a061009b366004610545565b610184565b6040516001600160a01b03909116815260200160405180910390f35b3480156100c857600080fd5b506100d161022e565b005b3480156100df57600080fd5b506100d16100ee366004610569565b610242565b3480156100ff57600080fd5b506000546001600160a01b03166100a0565b6100d161011f3660046105d1565b6102c3565b34801561013057600080fd5b506100d161013f366004610569565b61034b565b34801561015057600080fd5b506100d161015f366004610545565b61039a565b34801561017057600080fd5b506100a061017f366004610545565b61042f565b6000806000836001600160a01b03166040516101c3907f5c60da1b00000000000000000000000000000000000000000000000000000000815260040190565b600060405180830381855afa9150503d80600081146101fe576040519150601f19603f3d011682016040523d82523d6000602084013e610203565b606091505b50915091508161021257600080fd5b8080602001905181019061022691906106a7565b949350505050565b61023661046e565b61024060006104c8565b565b61024a61046e565b6040517f8f2839700000000000000000000000000000000000000000000000000000000081526001600160a01b038281166004830152831690638f283970906024015b600060405180830381600087803b1580156102a757600080fd5b505af11580156102bb573d6000803e3d6000fd5b505050505050565b6102cb61046e565b6040517f4f1ef2860000000000000000000000000000000000000000000000000000000081526001600160a01b03841690634f1ef28690349061031490869086906004016106c4565b6000604051808303818588803b15801561032d57600080fd5b505af1158015610341573d6000803e3d6000fd5b5050505050505050565b61035361046e565b6040517f3659cfe60000000000000000000000000000000000000000000000000000000081526001600160a01b038281166004830152831690633659cfe69060240161028d565b6103a261046e565b6001600160a01b0381166104235760405162461bcd60e51b815260206004820152602660248201527f4f776e61626c653a206e6577206f776e657220697320746865207a65726f206160448201527f646472657373000000000000000000000000000000000000000000000000000060648201526084015b60405180910390fd5b61042c816104c8565b50565b6000806000836001600160a01b03166040516101c3907ff851a44000000000000000000000000000000000000000000000000000000000815260040190565b6000546001600160a01b031633146102405760405162461bcd60e51b815260206004820181905260248201527f4f776e61626c653a2063616c6c6572206973206e6f7420746865206f776e6572604482015260640161041a565b600080546001600160a01b038381167fffffffffffffffffffffffff0000000000000000000000000000000000000000831681178455604051919092169283917f8be0079c531659141344cd1fd0a4f28419497f9722a3daafe3b4186f6b6457e09190a35050565b6001600160a01b038116811461042c57600080fd5b60006020828403121561055757600080fd5b813561056281610530565b9392505050565b6000806040838503121561057c57600080fd5b823561058781610530565b9150602083013561059781610530565b809150509250929050565b7f4e487b7100000000000000000000000000000000000000000000000000000000600052604160045260246000fd5b6000806000606084860312156105e657600080fd5b83356105f181610530565b9250602084013561060181610530565b9150604084013567ffffffffffffffff8082111561061e57600080fd5b818601915086601f83011261063257600080fd5b813581811115610644576106446105a2565b604051601f8201601f19908116603f0116810190838211818310171561066c5761066c6105a2565b8160405282815289602084870101111561068557600080fd5b8260208601602083013760006020848301015280955050505050509250925092565b6000602082840312156106b957600080fd5b815161056281610530565b6001600160a01b038316815260006020604081840152835180604085015260005b81811015610701578581018301518582016060015282016106e5565b81811115610713576000606083870101525b50601f01601f19169290920160600194935050505056fea2646970667358221220373643e83283d299c7edb8965547dbbb300e313f49754b91306807584f071df664736f6c634300080c0033608060405234801561001057600080fd5b50611eda806100206000396000f3fe608060405234801561001057600080fd5b50600436106101c45760003560e01c80639cbf280d116100f9578063d0f191e011610097578063e2d8716f11610071578063e2d8716f146103d7578063f3a39909146103ea578063f71d96cb14610416578063fb66d7ab1461042957600080fd5b8063d0f191e01461039e578063d844f6a4146103b1578063e041ae9b146103c457600080fd5b8063ba5d8082116100d3578063ba5d808214610329578063bc3086a214610365578063c4d66de814610378578063cd819a6f1461038b57600080fd5b80639cbf280d146102d2578063a7e1acdf146102e5578063b2596a671461031657600080fd5b80637cbe8d04116101665780637e4326d3116101405780637e4326d3146102915780638b146ad6146102a45780638dc03535146102b7578063900f09ac146102ca57600080fd5b80637cbe8d04146102795780637ceb9533146102815780637e0ca04f1461028957600080fd5b80633aa46685116101a25780633aa46685146102175780633d9aeaef14610240578063763fdb45146102535780637a9b6dda1461026657600080fd5b806322ae77ec146101c95780632c038c32146101ef5780633620419814610204575b600080fd5b6101dc6101d7366004611d07565b610431565b6040519081526020015b60405180910390f35b6102026101fd366004611d3a565b610562565b005b6101dc610212366004611d7d565b6109cc565b6101dc610225366004611d7d565b6001600160a01b031660009081526010602052604090205490565b6101dc61024e366004611d7d565b610a4a565b6101dc610261366004611d7d565b610aca565b6101dc610274366004611d7d565b610b48565b6003546101dc565b6005546101dc565b6002546101dc565b61020261029f366004611d3a565b610bc6565b6101dc6102b2366004611d7d565b610f58565b6101dc6102c5366004611d07565b610fd6565b6004546101dc565b6101dc6102e0366004611d7d565b611156565b6000546102fe906201000090046001600160a01b031681565b6040516001600160a01b0390911681526020016101e6565b6102fe610324366004611d98565b6111d3565b610355610337366004611d7d565b6001600160a01b03166000908152600e602052604090205460ff1690565b60405190151581526020016101e6565b6101dc610373366004611d7d565b6111fd565b610202610386366004611d7d565b61128d565b610202610399366004611d7d565b6113de565b6102026103ac366004611d3a565b611530565b6101dc6103bf366004611db1565b611887565b6101dc6103d2366004611d7d565b611a15565b6103556103e5366004611d07565b611a95565b6103556103f8366004611d7d565b6001600160a01b03166000908152600f602052604090205460ff1690565b6102fe610424366004611d98565b611b93565b6001546101dc565b6001600160a01b0381166000908152600e6020526040812054829060ff166104975760405162461bcd60e51b8152602060048201526014602482015273141b185e595c88191bd95cdb89dd08195e1a5cdd60621b60448201526064015b60405180910390fd5b836104ba816001600160a01b03166000908152600f602052604090205460ff1690565b6104fc5760405162461bcd60e51b815260206004820152601360248201527213195d995b08191bd95cdb89dd08195e1a5cdd606a1b604482015260640161048e565b6001600160a01b038481166000908152600d6020908152604080832089851684529091529020541661052f576000610559565b6001600160a01b038085166000908152600d60209081526040808320938916835292905220600301545b95945050505050565b6000546201000090046001600160a01b031633146105d05760405162461bcd60e51b815260206004820152602560248201527f4f6e6c792045746865726e6175742063616e2063616c6c20746869732066756e60448201526431ba34b7b760d91b606482015260840161048e565b816105f3816001600160a01b03166000908152600f602052604090205460ff1690565b6106355760405162461bcd60e51b815260206004820152601360248201527213195d995b08191bd95cdb89dd08195e1a5cdd606a1b604482015260640161048e565b81610658816001600160a01b03166000908152600e602052604090205460ff1690565b61069b5760405162461bcd60e51b8152602060048201526014602482015273141b185e595c88191bd95cdb89dd08195e1a5cdd60621b604482015260640161048e565b6001600160a01b038381166000908152600d6020908152604080832088851684529091529020541661071d5760405162461bcd60e51b815260206004820152602560248201527f496e7374616e636520666f7220746865206c6576656c206973206e6f7420637260448201526419585d195960da1b606482015260840161048e565b6001600160a01b038381166000908152600d6020908152604080832088851684529091529020548116908616146107a85760405162461bcd60e51b815260206004820152602960248201527f5375626d697474656420696e7374616e6365206973206e6f74207468652063726044820152686561746564206f6e6560b81b606482015260840161048e565b6001600160a01b038381166000908152600d6020908152604080832093881683529290522054600160a01b900460ff16156108255760405162461bcd60e51b815260206004820152601760248201527f4c6576656c20616c726561647920636f6d706c65746564000000000000000000604482015260640161048e565b6001600160a01b038084166000908152600c60209081526040808320938816835292905220546108f7576001600160a01b038316600090815260066020526040812080549161087383611e03565b90915550506001600160a01b038084166000818152600c602090815260408083209489168352938152838220429055918152600690915290812054906108ba858784611ba3565b90508181866001600160a01b03167f18f89fb58208351d054bc0794e723a333ae0a74acd73825a9f31d89af0c6755160405160405180910390a450505b6001600160a01b038084166000908152600d6020908152604080832093881680845293825280832060038101805460018181018355918652848620429101819055600283015594845280547fffffffffffffffffffffff00ffffffffffffffffffffffffffffffffffffffff16600160a01b179055600a909152812090910180549161098283611e03565b90915550506004805490600061099783611e03565b90915550506001600160a01b03831660009081526008602052604081208054916109c083611e03565b91905055505050505050565b6001600160a01b0381166000908152600e6020526040812054829060ff16610a2d5760405162461bcd60e51b8152602060048201526014602482015273141b185e595c88191bd95cdb89dd08195e1a5cdd60621b604482015260640161048e565b50506001600160a01b031660009081526006602052604090205490565b6001600160a01b0381166000908152600f6020526040812054829060ff16610aaa5760405162461bcd60e51b815260206004820152601360248201527213195d995b08191bd95cdb89dd08195e1a5cdd606a1b604482015260640161048e565b50506001600160a01b03166000908152600a602052604090206001015490565b6001600160a01b0381166000908152600e6020526040812054829060ff16610b2b5760405162461bcd60e51b8152602060048201526014602482015273141b185e595c88191bd95cdb89dd08195e1a5cdd60621b604482015260640161048e565b50506001600160a01b031660009081526008602052604090205490565b6001600160a01b0381166000908152600e6020526040812054829060ff16610ba95760405162461bcd60e51b8152602060048201526014602482015273141b185e595c88191bd95cdb89dd08195e1a5cdd60621b604482015260640161048e565b50506001600160a01b031660009081526009602052604090205490565b6000546201000090046001600160a01b03163314610c345760405162461bcd60e51b815260206004820152602560248201527f4f6e6c792045746865726e6175742063616e2063616c6c20746869732066756e60448201526431ba34b7b760d91b606482015260840161048e565b81610c57816001600160a01b03166000908152600f602052604090205460ff1690565b610c995760405162461bcd60e51b815260206004820152601360248201527213195d995b08191bd95cdb89dd08195e1a5cdd606a1b604482015260640161048e565b6001600160a01b0382166000908152600e602052604090205460ff16610d27576001805480820182557fb10e2d527612073b26eecdfd717e6a320cf44b4afac2b0732d9fcbe2b7fa0cf601805473ffffffffffffffffffffffffffffffffffffffff19166001600160a01b0385169081179091556000908152600e60205260409020805460ff191690911790555b6001600160a01b038281166000908152600d60209081526040808320878516845290915290205416610d7c576001600160a01b038083166000908152600b602090815260408083209387168352929052204290555b6040805160a0810182526001600160a01b038087168252600060208084018290524284860152606084018290528683168252600d815284822092881682529190915291909120600301546080820190610de357604080516000815260208101909152610e56565b6001600160a01b038085166000908152600d6020908152604080832093891683529281529082902060030180548351818402810184019094528084529091830182828015610e5057602002820191906000526020600020905b815481526020019060010190808311610e3c575b50505050505b90526001600160a01b038084166000908152600d60209081526040808320888516845282529182902084518154868401511515600160a01b027fffffffffffffffffffffff00000000000000000000000000000000000000000090911691909516179390931783559083015160018301556060830151600283015560808301518051610ee89260038501920190611c8b565b5050506001600160a01b0383166000908152600a60205260408120805491610f0f83611e03565b909155505060038054906000610f2483611e03565b90915550506001600160a01b0382166000908152600760205260408120805491610f4d83611e03565b919050555050505050565b6001600160a01b0381166000908152600e6020526040812054829060ff16610fb95760405162461bcd60e51b8152602060048201526014602482015273141b185e595c88191bd95cdb89dd08195e1a5cdd60621b604482015260640161048e565b50506001600160a01b031660009081526007602052604090205490565b6001600160a01b0382166000908152600e6020526040812054839060ff166110375760405162461bcd60e51b8152602060048201526014602482015273141b185e595c88191bd95cdb89dd08195e1a5cdd60621b604482015260640161048e565b8261105a816001600160a01b03166000908152600f602052604090205460ff1690565b61109c5760405162461bcd60e51b815260206004820152601360248201527213195d995b08191bd95cdb89dd08195e1a5cdd606a1b604482015260640161048e565b6001600160a01b038086166000908152600c602090815260408083209388168352929052205461110e5760405162461bcd60e51b815260206004820152601360248201527f4c6576656c206e6f7420636f6d706c6574656400000000000000000000000000604482015260640161048e565b6001600160a01b038086166000818152600b6020908152604080832094891680845294825280832054938352600c825280832094835293905291909120546105599190611e1e565b6001600160a01b0381166000908152600f6020526040812054829060ff166111b65760405162461bcd60e51b815260206004820152601360248201527213195d995b08191bd95cdb89dd08195e1a5cdd606a1b604482015260640161048e565b50506001600160a01b03166000908152600a602052604090205490565b600281815481106111e357600080fd5b6000918252602090912001546001600160a01b0316905081565b6001600160a01b0381166000908152600e6020526040812054829060ff1661125e5760405162461bcd60e51b8152602060048201526014602482015273141b185e595c88191bd95cdb89dd08195e1a5cdd60621b604482015260640161048e565b60025461126a846109cc565b61127c90670de0b6b3a7640000611e35565b6112869190611e54565b9392505050565b600054610100900460ff16158080156112ad5750600054600160ff909116105b806112c75750303b1580156112c7575060005460ff166001145b6113395760405162461bcd60e51b815260206004820152602e60248201527f496e697469616c697a61626c653a20636f6e747261637420697320616c72656160448201527f647920696e697469616c697a6564000000000000000000000000000000000000606482015260840161048e565b6000805460ff19166001179055801561135c576000805461ff0019166101001790555b600080547fffffffffffffffffffff0000000000000000000000000000000000000000ffff16620100006001600160a01b0385160217905580156113da576000805461ff0019169055604051600181527f7f26b83ff96e1f2b6a682f133852f6798a09c465da95921460cefb38474024989060200160405180910390a15b5050565b80611401816001600160a01b03166000908152600f602052604090205460ff1690565b1561144e5760405162461bcd60e51b815260206004820152601460248201527f4c6576656c20616c726561647920657869737473000000000000000000000000604482015260640161048e565b6000546201000090046001600160a01b031633146114bc5760405162461bcd60e51b815260206004820152602560248201527f4f6e6c792045746865726e6175742063616e2063616c6c20746869732066756e60448201526431ba34b7b760d91b606482015260840161048e565b506001600160a01b03166000818152600f60205260408120805460ff191660019081179091556002805491820181559091527f405787fa12a823e0f2b7631cc41b3ba8828b3321ca811111fa75cd3aa3bb5ace01805473ffffffffffffffffffffffffffffffffffffffff19169091179055565b6000546201000090046001600160a01b0316331461159e5760405162461bcd60e51b815260206004820152602560248201527f4f6e6c792045746865726e6175742063616e2063616c6c20746869732066756e60448201526431ba34b7b760d91b606482015260840161048e565b816115c1816001600160a01b03166000908152600f602052604090205460ff1690565b6116035760405162461bcd60e51b815260206004820152601360248201527213195d995b08191bd95cdb89dd08195e1a5cdd606a1b604482015260640161048e565b81611626816001600160a01b03166000908152600e602052604090205460ff1690565b6116695760405162461bcd60e51b8152602060048201526014602482015273141b185e595c88191bd95cdb89dd08195e1a5cdd60621b604482015260640161048e565b6001600160a01b038381166000908152600d602090815260408083208885168452909152902054166116eb5760405162461bcd60e51b815260206004820152602560248201527f496e7374616e636520666f7220746865206c6576656c206973206e6f7420637260448201526419585d195960da1b606482015260840161048e565b6001600160a01b038381166000908152600d6020908152604080832088851684529091529020548116908616146117765760405162461bcd60e51b815260206004820152602960248201527f5375626d697474656420696e7374616e6365206973206e6f74207468652063726044820152686561746564206f6e6560b81b606482015260840161048e565b6001600160a01b038381166000908152600d6020908152604080832093881683529290522054600160a01b900460ff16156117f35760405162461bcd60e51b815260206004820152601760248201527f4c6576656c20616c726561647920636f6d706c65746564000000000000000000604482015260640161048e565b6001600160a01b038084166000908152600d60209081526040808320938816808452938252808320600301805460018101825590845282842042910155928252600a905290812060020180549161184983611e03565b90915550506005805490600061185e83611e03565b90915550506001600160a01b03831660009081526009602052604081208054916109c083611e03565b6001600160a01b0383166000908152600e6020526040812054849060ff166118e85760405162461bcd60e51b8152602060048201526014602482015273141b185e595c88191bd95cdb89dd08195e1a5cdd60621b604482015260640161048e565b8361190b816001600160a01b03166000908152600f602052604090205460ff1690565b61194d5760405162461bcd60e51b815260206004820152601360248201527213195d995b08191bd95cdb89dd08195e1a5cdd606a1b604482015260640161048e565b6001600160a01b038087166000908152600d60209081526040808320938916835292905220600301548411156119c55760405162461bcd60e51b815260206004820152601060248201527f496e646578206f7574626f756e64656400000000000000000000000000000000604482015260640161048e565b6001600160a01b038087166000908152600d602090815260408083209389168352929052206003018054859081106119ff576119ff611e76565b9060005260206000200154925050509392505050565b6001600160a01b0381166000908152600f6020526040812054829060ff16611a755760405162461bcd60e51b815260206004820152601360248201527213195d995b08191bd95cdb89dd08195e1a5cdd606a1b604482015260640161048e565b50506001600160a01b03166000908152600a602052604090206002015490565b6001600160a01b0382166000908152600e6020526040812054839060ff16611af65760405162461bcd60e51b8152602060048201526014602482015273141b185e595c88191bd95cdb89dd08195e1a5cdd60621b604482015260640161048e565b82611b19816001600160a01b03166000908152600f602052604090205460ff1690565b611b5b5760405162461bcd60e51b815260206004820152601360248201527213195d995b08191bd95cdb89dd08195e1a5cdd606a1b604482015260640161048e565b5050506001600160a01b039182166000908152600d60209081526040808320939094168252919091522054600160a01b900460ff1690565b600181815481106111e357600080fd5b6001600160a01b03808416600081815260106020908152604080832054600b835281842095881680855295835281842054948452600c83528184209584529490915281205490929183918291611bf891611e1e565b6001600160a01b038816600090815260106020526040902054909150611c38576001600160a01b0387166000908152601060205260409020819055611c81565b8481611c45600183611e1e565b611c4f9086611e35565b611c599190611e8c565b611c639190611e54565b6001600160a01b038816600090815260106020526040902081905591505b5095945050505050565b828054828255906000526020600020908101928215611cc6579160200282015b82811115611cc6578251825591602001919060010190611cab565b50611cd2929150611cd6565b5090565b5b80821115611cd25760008155600101611cd7565b80356001600160a01b0381168114611d0257600080fd5b919050565b60008060408385031215611d1a57600080fd5b611d2383611ceb565b9150611d3160208401611ceb565b90509250929050565b600080600060608486031215611d4f57600080fd5b611d5884611ceb565b9250611d6660208501611ceb565b9150611d7460408501611ceb565b90509250925092565b600060208284031215611d8f57600080fd5b61128682611ceb565b600060208284031215611daa57600080fd5b5035919050565b600080600060608486031215611dc657600080fd5b611dcf84611ceb565b9250611ddd60208501611ceb565b9150604084013590509250925092565b634e487b7160e01b600052601160045260246000fd5b6000600019821415611e1757611e17611ded565b5060010190565b600082821015611e3057611e30611ded565b500390565b6000816000190483118215151615611e4f57611e4f611ded565b500290565b600082611e7157634e487b7160e01b600052601260045260246000fd5b500490565b634e487b7160e01b600052603260045260246000fd5b60008219821115611e9f57611e9f611ded565b50019056fea26469706673582212205220eb2f8688fb994bfb337a7f9bdb0cddabf313d6f983d37fca099a0321112e64736f6c634300080c003360806040523480156200001157600080fd5b5060405162000eb438038062000eb48339810160408190526200003491620004a9565b6040516001600160a01b03821660248201528390839060440160408051601f198184030181529190526020810180516001600160e01b0390811663189acdbd60e31b1790915283908290620000919083908390600090620000ab16565b506200009f905082620000e8565b50505050505062000575565b620000b68362000143565b600082511180620000c45750805b15620000e357620000e183836200018560201b620002701760201c565b505b505050565b7f7e644d79422f17c01e4894b5f4f588d331ebfa28653d42ae832dc59e38c9798f62000113620001b4565b604080516001600160a01b03928316815291841660208301520160405180910390a16200014081620001ed565b50565b6200014e81620002a2565b6040516001600160a01b038216907fbc7cd75a20ee27fd9adebab32041f755214dbc6bffa90cc0225b39da2e5c2d3b90600090a250565b6060620001ad838360405180606001604052806027815260200162000e8d6027913962000356565b9392505050565b6000620001de60008051602062000e6d83398151915260001b6200043c60201b620002181760201c565b546001600160a01b0316919050565b6001600160a01b038116620002585760405162461bcd60e51b815260206004820152602660248201527f455243313936373a206e65772061646d696e20697320746865207a65726f206160448201526564647265737360d01b60648201526084015b60405180910390fd5b806200028160008051602062000e6d83398151915260001b6200043c60201b620002181760201c565b80546001600160a01b0319166001600160a01b039290921691909117905550565b620002b8816200043f60201b6200029c1760201c565b6200031c5760405162461bcd60e51b815260206004820152602d60248201527f455243313936373a206e657720696d706c656d656e746174696f6e206973206e60448201526c1bdd08184818dbdb9d1c9858dd609a1b60648201526084016200024f565b80620002817f360894a13ba1a3210667c828492db98dca3e2076cc3735a920a3ca505d382bbc60001b6200043c60201b620002181760201c565b60606001600160a01b0384163b620003c05760405162461bcd60e51b815260206004820152602660248201527f416464726573733a2064656c65676174652063616c6c20746f206e6f6e2d636f6044820152651b9d1c9858dd60d21b60648201526084016200024f565b600080856001600160a01b031685604051620003dd919062000522565b600060405180830381855af49150503d80600081146200041a576040519150601f19603f3d011682016040523d82523d6000602084013e6200041f565b606091505b509092509050620004328282866200044e565b9695505050505050565b90565b6001600160a01b03163b151590565b606083156200045f575081620001ad565b825115620004705782518084602001fd5b8160405162461bcd60e51b81526004016200024f919062000540565b80516001600160a01b0381168114620004a457600080fd5b919050565b600080600060608486031215620004bf57600080fd5b620004ca846200048c565b9250620004da602085016200048c565b9150620004ea604085016200048c565b90509250925092565b60005b8381101562000510578181015183820152602001620004f6565b83811115620000e15750506000910152565b6000825162000536818460208701620004f3565b9190910192915050565b602081526000825180602084015262000561816040850160208701620004f3565b601f01601f19169190910160400192915050565b6108e880620005856000396000f3fe60806040526004361061005e5760003560e01c80635c60da1b116100435780635c60da1b146100a85780638f283970146100d9578063f851a440146100f95761006d565b80633659cfe6146100755780634f1ef286146100955761006d565b3661006d5761006b61010e565b005b61006b61010e565b34801561008157600080fd5b5061006b610090366004610772565b610128565b61006b6100a336600461078d565b61016f565b3480156100b457600080fd5b506100bd6101e0565b6040516001600160a01b03909116815260200160405180910390f35b3480156100e557600080fd5b5061006b6100f4366004610772565b61021b565b34801561010557600080fd5b506100bd610245565b6101166102ab565b610126610121610365565b61036f565b565b610130610393565b6001600160a01b0316336001600160a01b0316141561016757610164816040518060200160405280600081525060006103c6565b50565b61016461010e565b610177610393565b6001600160a01b0316336001600160a01b031614156101d8576101d38383838080601f016020809104026020016040519081016040528093929190818152602001838380828437600092019190915250600192506103c6915050565b505050565b6101d361010e565b60006101ea610393565b6001600160a01b0316336001600160a01b031614156102105761020b610365565b905090565b61021861010e565b90565b610223610393565b6001600160a01b0316336001600160a01b0316141561016757610164816103f1565b600061024f610393565b6001600160a01b0316336001600160a01b031614156102105761020b610393565b6060610295838360405180606001604052806027815260200161088c60279139610445565b9392505050565b6001600160a01b03163b151590565b6102b3610393565b6001600160a01b0316336001600160a01b031614156101265760405162461bcd60e51b815260206004820152604260248201527f5472616e73706172656e745570677261646561626c6550726f78793a2061646d60448201527f696e2063616e6e6f742066616c6c6261636b20746f2070726f7879207461726760648201527f6574000000000000000000000000000000000000000000000000000000000000608482015260a4015b60405180910390fd5b600061020b610539565b3660008037600080366000845af43d6000803e80801561038e573d6000f35b3d6000fd5b60007fb53127684a568b3173ae13b9f8a6016e243e63b6e8ee1178d6a717850b5d61035b546001600160a01b0316919050565b6103cf83610561565b6000825111806103dc5750805b156101d3576103eb8383610270565b50505050565b7f7e644d79422f17c01e4894b5f4f588d331ebfa28653d42ae832dc59e38c9798f61041a610393565b604080516001600160a01b03928316815291841660208301520160405180910390a1610164816105a1565b60606001600160a01b0384163b6104c45760405162461bcd60e51b815260206004820152602660248201527f416464726573733a2064656c65676174652063616c6c20746f206e6f6e2d636f60448201527f6e74726163740000000000000000000000000000000000000000000000000000606482015260840161035c565b600080856001600160a01b0316856040516104df919061083c565b600060405180830381855af49150503d806000811461051a576040519150601f19603f3d011682016040523d82523d6000602084013e61051f565b606091505b509150915061052f828286610679565b9695505050505050565b60007f360894a13ba1a3210667c828492db98dca3e2076cc3735a920a3ca505d382bbc6103b7565b61056a816106b2565b6040516001600160a01b038216907fbc7cd75a20ee27fd9adebab32041f755214dbc6bffa90cc0225b39da2e5c2d3b90600090a250565b6001600160a01b03811661061d5760405162461bcd60e51b815260206004820152602660248201527f455243313936373a206e65772061646d696e20697320746865207a65726f206160448201527f6464726573730000000000000000000000000000000000000000000000000000606482015260840161035c565b807fb53127684a568b3173ae13b9f8a6016e243e63b6e8ee1178d6a717850b5d61035b80547fffffffffffffffffffffffff0000000000000000000000000000000000000000166001600160a01b039290921691909117905550565b60608315610688575081610295565b8251156106985782518084602001fd5b8160405162461bcd60e51b815260040161035c9190610858565b6001600160a01b0381163b61072f5760405162461bcd60e51b815260206004820152602d60248201527f455243313936373a206e657720696d706c656d656e746174696f6e206973206e60448201527f6f74206120636f6e747261637400000000000000000000000000000000000000606482015260840161035c565b807f360894a13ba1a3210667c828492db98dca3e2076cc3735a920a3ca505d382bbc610640565b80356001600160a01b038116811461076d57600080fd5b919050565b60006020828403121561078457600080fd5b61029582610756565b6000806000604084860312156107a257600080fd5b6107ab84610756565b9250602084013567ffffffffffffffff808211156107c857600080fd5b818601915086601f8301126107dc57600080fd5b8135818111156107eb57600080fd5b8760208285010111156107fd57600080fd5b6020830194508093505050509250925092565b60005b8381101561082b578181015183820152602001610813565b838111156103eb5750506000910152565b6000825161084e818460208701610810565b9190910192915050565b6020815260008251806020840152610877816040850160208701610810565b601f01601f1916919091016040019291505056fe416464726573733a206c6f772d6c6576656c2064656c65676174652063616c6c206661696c6564a264697066735822122009e25e09185ec77b97692d05cf1fe8293e62f8307cb146ae5df29ec6e5be967864736f6c634300080c0033b53127684a568b3173ae13b9f8a6016e243e63b6e8ee1178d6a717850b5d6103416464726573733a206c6f772d6c6576656c2064656c65676174652063616c6c206661696c6564",
  "linkReferences": {},
  "deployedLinkReferences": {}
}