{
  "_format": "hh-sol-artifact-1",
  "contractName": "FindMe",
  "sourceName": "contracts/levels/FindMe.sol",
  "abi": [
    {
      "inputs": [
        {
          "internalType": "uint16",
          "name": "_setMe",
          "type": "uint16"
        },
        {
          "internalType": "bytes32[3]",
          "name": "_data",
          "type": "bytes32[3]"
        }
      ],
      "stateMutability": "nonpayable",
      "type": "constructor"
    },
    {
      "inputs": [],
      "name": "isUnlock",
      "outputs": [
        {
          "internalType": "bool",
          "name": "",
          "type": "bool"
        }
      ],
      "stateMutability": "view",
      "type": "function"
    },
    {
      "inputs": [],
      "name": "time",
      "outputs": [
        {
          "internalType": "uint256",
          "name": "",
          "type": "uint256"
        }
      ],
      "stateMutability": "view",
      "type": "function"
    },
    {
      "inputs": [
        {
          "internalType": "bytes16",
          "name": "_key",
          "type": "bytes16"
        }
      ],
      "name": "unLock",
      "outputs": [],
      "stateMutability": "nonpayable",
      "type": "function"
    }
  ],
  "bytecode": "0x60a06040524260018190556002805461ffff90921663010000000264ffffffffff1990921691909117620800a017905534801561003b57600080fd5b506040516102b93803806102b983398101604081905261005a916100df565b61ffff821660805261006e60038281610076565b505050610178565b82600381019282156100a4579160200282015b828111156100a4578251825591602001919060010190610089565b506100b09291506100b4565b5090565b5b808211156100b057600081556001016100b5565b634e487b7160e01b600052604160045260246000fd5b600080608083850312156100f257600080fd5b825161ffff8116811461010457600080fd5b91506020603f8401851361011757600080fd5b604051606081016001600160401b0381118282101715610139576101396100c9565b60405280608086018781111561014e57600080fd5b8387015b818110156101695780518352918401918401610152565b50505080925050509250929050565b608051610129610190600039600050506101296000f3fe6080604052348015600f57600080fd5b5060043610603c5760003560e01c806316ada547146041578063c1550d1214605c578063eb18134614606d575b600080fd5b604960015481565b6040519081526020015b60405180910390f35b606b606736600460bb565b6088565b005b60005460799060ff1681565b60405190151581526020016053565b6004546fffffffffffffffffffffffffffffffff1982811691161460ab57600080fd5b506000805460ff19166001179055565b60006020828403121560cc57600080fd5b81356fffffffffffffffffffffffffffffffff198116811460ec57600080fd5b939250505056fea2646970667358221220398f5161a1150142ac65b17dacc08bbac47df18f64219905c51cbb7c71ef0c0164736f6c634300080c0033",
  "linkReferences": {},
  "deployedLinkReferences": {}
}