{
  "_format": "hh-sol-artifact-1",
  "contractName": "LiftFactory",
  "sourceName": "contracts/levels/LiftFactory.sol",
  "abi": [
    {
      "inputs": [
        {
          "internalType": "address",
          "name": "",
          "type": "address"
        }
      ],
      "name": "createInstance",
      "outputs": [
        {
          "internalType": "address",
          "name": "",
          "type": "address"
        }
      ],
      "stateMutability": "payable",
      "type": "function"
    },
    {
      "inputs": [
        {
          "internalType": "address payable",
          "name": "_instance",
          "type": "address"
        },
        {
          "internalType": "address",
          "name": "",
          "type": "address"
        }
      ],
      "name": "validateInstance",
      "outputs": [
        {
          "internalType": "bool",
          "name": "",
          "type": "bool"
        }
      ],
      "stateMutability": "view",
      "type": "function"
    }
  ],
  "bytecode": "0x608060405234801561001057600080fd5b50610459806100206000396000f3fe6080604052600436106100295760003560e01c80637726f7761461002e578063d38def5b1461006b575b600080fd5b61004161003c36600461017d565b61009b565b60405173ffffffffffffffffffffffffffffffffffffffff90911681526020015b60405180910390f35b34801561007757600080fd5b5061008b6100863660046101a1565b6100ce565b6040519015158152602001610062565b6000806040516100aa9061014b565b604051809103906000f0801580156100c6573d6000803e3d6000fd5b509392505050565b6000808390508073ffffffffffffffffffffffffffffffffffffffff1663fe6dcdba6040518163ffffffff1660e01b8152600401602060405180830381865afa15801561011f573d6000803e3d6000fd5b505050506040513d601f19601f8201168201806040525081019061014391906101da565b949350505050565b610227806101fd83390190565b73ffffffffffffffffffffffffffffffffffffffff8116811461017a57600080fd5b50565b60006020828403121561018f57600080fd5b813561019a81610158565b9392505050565b600080604083850312156101b457600080fd5b82356101bf81610158565b915060208301356101cf81610158565b809150509250929050565b6000602082840312156101ec57600080fd5b8151801515811461019a57600080fdfe608060405234801561001057600080fd5b50610207806100206000396000f3fe608060405234801561001057600080fd5b50600436106100415760003560e01c80634069536314610046578063caea459d14610062578063fe6dcdba14610077575b600080fd5b61004f60015481565b6040519081526020015b60405180910390f35b61007561007036600461018f565b610094565b005b6000546100849060ff1681565b6040519015158152602001610059565b6040516302f8cd6560e41b81526004810182905233908190632f8cd650906024016020604051808303816000875af11580156100d4573d6000803e3d6000fd5b505050506040513d601f19601f820116820180604052508101906100f891906101a8565b61018b5760018290556040516302f8cd6560e41b81526004810183905273ffffffffffffffffffffffffffffffffffffffff821690632f8cd650906024016020604051808303816000875af1158015610155573d6000803e3d6000fd5b505050506040513d601f19601f8201168201806040525081019061017991906101a8565b6000805460ff19169115159190911790555b5050565b6000602082840312156101a157600080fd5b5035919050565b6000602082840312156101ba57600080fd5b815180151581146101ca57600080fd5b939250505056fea26469706673582212207a8f3fcc1fe71d99057ef78ed41159bc4a2c0fba4db9f91c4b4a1938d170061864736f6c634300080c0033a264697066735822122021192d21163869fa6af406bc2eadc06ba93228269e74945c5fcd04168bb3fc1964736f6c634300080c0033",
  "linkReferences": {},
  "deployedLinkReferences": {}
}