{
  "_format": "hh-sol-artifact-1",
  "contractName": "FindMeFactory",
  "sourceName": "contracts/levels/FindMeFactory.sol",
  "abi": [
    {
      "inputs": [
        {
          "internalType": "address",
          "name": "",
          "type": "address"
        }
      ],
      "name": "createInstance",
      "outputs": [
        {
          "internalType": "address",
          "name": "",
          "type": "address"
        }
      ],
      "stateMutability": "payable",
      "type": "function"
    },
    {
      "inputs": [
        {
          "internalType": "address payable",
          "name": "_instance",
          "type": "address"
        },
        {
          "internalType": "address",
          "name": "",
          "type": "address"
        }
      ],
      "name": "validateInstance",
      "outputs": [
        {
          "internalType": "bool",
          "name": "",
          "type": "bool"
        }
      ],
      "stateMutability": "view",
      "type": "function"
    }
  ],
  "bytecode": "0x608060405234801561001057600080fd5b50610654806100206000396000f3fe6080604052600436106100295760003560e01c80637726f7761461002e578063d38def5b1461006b575b600080fd5b61004161003c3660046102aa565b61009b565b60405173ffffffffffffffffffffffffffffffffffffffff90911681526020015b60405180910390f35b34801561007757600080fd5b5061008b6100863660046102ce565b6101dd565b6040519015158152602001610062565b6000326100a661025a565b604080513260601b6bffffffffffffffffffffffff191660208083018290527f3000000000000000000000000000000000000000000000000000000000000000603480850191909152845160158186038101825260359586018752815191840191909120875285518084018590527f3100000000000000000000000000000000000000000000000000000000000000818401528651808203830181529086018752805190840120878401528551808401949094527f3200000000000000000000000000000000000000000000000000000000000000918401919091528451808403909101815291909201835280519101208282015251600090839083906101ac90610278565b6101b7929190610307565b604051809103906000f0801580156101d3573d6000803e3d6000fd5b5095945050505050565b6000808390508073ffffffffffffffffffffffffffffffffffffffff1663eb1813466040518163ffffffff1660e01b8152600401602060405180830381865afa15801561022e573d6000803e3d6000fd5b505050506040513d601f19601f820116820180604052508101906102529190610343565b949350505050565b60405180606001604052806003906020820280368337509192915050565b6102b98061036683390190565b73ffffffffffffffffffffffffffffffffffffffff811681146102a757600080fd5b50565b6000602082840312156102bc57600080fd5b81356102c781610285565b9392505050565b600080604083850312156102e157600080fd5b82356102ec81610285565b915060208301356102fc81610285565b809150509250929050565b61ffff831681526080810160208083018460005b60038110156103385781518352918301919083019060010161031b565b505050509392505050565b60006020828403121561035557600080fd5b815180151581146102c757600080fdfe60a06040524260018190556002805461ffff90921663010000000264ffffffffff1990921691909117620800a017905534801561003b57600080fd5b506040516102b93803806102b983398101604081905261005a916100df565b61ffff821660805261006e60038281610076565b505050610178565b82600381019282156100a4579160200282015b828111156100a4578251825591602001919060010190610089565b506100b09291506100b4565b5090565b5b808211156100b057600081556001016100b5565b634e487b7160e01b600052604160045260246000fd5b600080608083850312156100f257600080fd5b825161ffff8116811461010457600080fd5b91506020603f8401851361011757600080fd5b604051606081016001600160401b0381118282101715610139576101396100c9565b60405280608086018781111561014e57600080fd5b8387015b818110156101695780518352918401918401610152565b50505080925050509250929050565b608051610129610190600039600050506101296000f3fe6080604052348015600f57600080fd5b5060043610603c5760003560e01c806316ada547146041578063c1550d1214605c578063eb18134614606d575b600080fd5b604960015481565b6040519081526020015b60405180910390f35b606b606736600460bb565b6088565b005b60005460799060ff1681565b60405190151581526020016053565b6004546fffffffffffffffffffffffffffffffff1982811691161460ab57600080fd5b506000805460ff19166001179055565b60006020828403121560cc57600080fd5b81356fffffffffffffffffffffffffffffffff198116811460ec57600080fd5b939250505056fea2646970667358221220398f5161a1150142ac65b17dacc08bbac47df18f64219905c51cbb7c71ef0c0164736f6c634300080c0033a2646970667358221220799763cb90e0377367a9aacc4a15c737bc168a08c29ce319e459ffd25c3948bc64736f6c634300080c0033",
  "linkReferences": {},
  "deployedLinkReferences": {}
}