{
  "_format": "hh-sol-artifact-1",
  "contractName": "PredictTheFuture",
  "sourceName": "contracts/levels/PredictTheFuture.sol",
  "abi": [
    {
      "inputs": [],
      "stateMutability": "payable",
      "type": "constructor"
    },
    {
      "inputs": [],
      "name": "guess",
      "outputs": [
        {
          "internalType": "uint8",
          "name": "",
          "type": "uint8"
        }
      ],
      "stateMutability": "view",
      "type": "function"
    },
    {
      "inputs": [],
      "name": "player",
      "outputs": [
        {
          "internalType": "address",
          "name": "",
          "type": "address"
        }
      ],
      "stateMutability": "view",
      "type": "function"
    },
    {
      "inputs": [
        {
          "internalType": "uint8",
          "name": "n",
          "type": "uint8"
        }
      ],
      "name": "setGuess",
      "outputs": [],
      "stateMutability": "payable",
      "type": "function"
    },
    {
      "inputs": [],
      "name": "solution",
      "outputs": [],
      "stateMutability": "nonpayable",
      "type": "function"
    }
  ],
  "bytecode": "0x608060405234662386f26fc100001461001757600080fd5b6103ce806100266000396000f3fe60806040526004361061003f5760003560e01c806348db5f89146100445780634fb602511461009b57806356e1479a146100b2578063a28b749a146100c5575b600080fd5b34801561005057600080fd5b506000546100719073ffffffffffffffffffffffffffffffffffffffff1681565b60405173ffffffffffffffffffffffffffffffffffffffff90911681526020015b60405180910390f35b3480156100a757600080fd5b506100b06100f8565b005b6100b06100c0366004610307565b610269565b3480156100d157600080fd5b506000546100e690600160a01b900460ff1681565b60405160ff9091168152602001610092565b60005473ffffffffffffffffffffffffffffffffffffffff1633146101645760405162461bcd60e51b815260206004820152600a60248201527f57726f6e6720757365720000000000000000000000000000000000000000000060448201526064015b60405180910390fd5b60015443116101b55760405162461bcd60e51b815260206004820152601a60248201527f4e65656420746f2063616c6c206174206e65787420626c6f636b000000000000604482015260640161015b565b6000600a6101c4600143610347565b604080519140602083015242908201526060016040516020818303038152906040528051906020012060001c6101fa919061035e565b600080547fffffffffffffffffffffffff00000000000000000000000000000000000000001690819055909150600160a01b900460ff168114156102665760405133904780156108fc02916000818181858888f19350505050158015610264573d6000803e3d6000fd5b505b50565b60005473ffffffffffffffffffffffffffffffffffffffff161561028c57600080fd5b34662386f26fc100001461029f57600080fd5b600080547fffffffffffffffffffffff00000000000000000000000000000000000000000016337fffffffffffffffffffffff00ffffffffffffffffffffffffffffffffffffffff1617600160a01b60ff841602179055610301436001610380565b60015550565b60006020828403121561031957600080fd5b813560ff8116811461032a57600080fd5b9392505050565b634e487b7160e01b600052601160045260246000fd5b60008282101561035957610359610331565b500390565b60008261037b57634e487b7160e01b600052601260045260246000fd5b500690565b6000821982111561039357610393610331565b50019056fea26469706673582212208ce570299b0b0dbeabce7b1ad1fc01c1190118b1a9a0a6f63c30132f5f2460a064736f6c634300080c0033",
  "linkReferences": {},
  "deployedLinkReferences": {}
}