{
  "_format": "hh-sol-artifact-1",
  "contractName": "LendingPoolFactory",
  "sourceName": "contracts/levels/LendingPoolFactory.sol",
  "abi": [
    {
      "inputs": [
        {
          "internalType": "address",
          "name": "",
          "type": "address"
        }
      ],
      "name": "createInstance",
      "outputs": [
        {
          "internalType": "address",
          "name": "",
          "type": "address"
        }
      ],
      "stateMutability": "payable",
      "type": "function"
    },
    {
      "inputs": [],
      "name": "insertCoin",
      "outputs": [
        {
          "internalType": "uint256",
          "name": "",
          "type": "uint256"
        }
      ],
      "stateMutability": "view",
      "type": "function"
    },
    {
      "inputs": [
        {
          "internalType": "address payable",
          "name": "_instance",
          "type": "address"
        },
        {
          "internalType": "address",
          "name": "",
          "type": "address"
        }
      ],
      "name": "validateInstance",
      "outputs": [
        {
          "internalType": "bool",
          "name": "",
          "type": "bool"
        }
      ],
      "stateMutability": "view",
      "type": "function"
    }
  ],
  "bytecode": "0x608060405267016345785d8a000060005534801561001c57600080fd5b506105f38061002c6000396000f3fe6080604052600436106100345760003560e01c80637726f7761461003957806390696af914610076578063d38def5b1461009a575b600080fd5b61004c6100473660046101b5565b6100e1565b60405173ffffffffffffffffffffffffffffffffffffffff90911681526020015b60405180910390f35b34801561008257600080fd5b5061008c60005481565b60405190815260200161006d565b3480156100a657600080fd5b506100d16100b53660046101d9565b5073ffffffffffffffffffffffffffffffffffffffff16311590565b604051901515815260200161006d565b60008054341015610152576040517f08c379a000000000000000000000000000000000000000000000000000000000815260206004820152601a60248201527f4d7573742073656e64206174206c6561737420302e3120455448000000000000604482015260640160405180910390fd5b3460405161015f90610183565b6040518091039082f090508015801561017c573d6000803e3d6000fd5b5092915050565b6103ab8061021383390190565b73ffffffffffffffffffffffffffffffffffffffff811681146101b257600080fd5b50565b6000602082840312156101c757600080fd5b81356101d281610190565b9392505050565b600080604083850312156101ec57600080fd5b82356101f781610190565b9150602083013561020781610190565b80915050925092905056fe60806040523467016345785d8a00001461001857600080fd5b610384806100276000396000f3fe6080604052600436106100345760003560e01c80633ccfd60b146100395780639ab603b914610050578063d0e30db014610070575b600080fd5b34801561004557600080fd5b5061004e610078565b005b34801561005c57600080fd5b5061004e61006b3660046102f6565b61009a565b61004e6101a5565b33600081815260208190526040812080549190559061009790826101cb565b50565b47818110156100f05760405162461bcd60e51b815260206004820152601260248201527f4e6f7420656e6f7567682062616c616e6365000000000000000000000000000060448201526064015b60405180910390fd5b3373ffffffffffffffffffffffffffffffffffffffff166361461954836040518263ffffffff1660e01b81526004016000604051808303818588803b15801561013857600080fd5b505af115801561014c573d6000803e3d6000fd5b5050505050804710156101a15760405162461bcd60e51b815260206004820152601760248201527f466c6173686c6f616e206e6f742070616964206261636b00000000000000000060448201526064016100e7565b5050565b33600090815260208190526040812080543492906101c490849061030f565b9091555050565b8047101561021b5760405162461bcd60e51b815260206004820152601d60248201527f416464726573733a20696e73756666696369656e742062616c616e636500000060448201526064016100e7565b60008273ffffffffffffffffffffffffffffffffffffffff168260405160006040518083038185875af1925050503d8060008114610275576040519150601f19603f3d011682016040523d82523d6000602084013e61027a565b606091505b50509050806102f15760405162461bcd60e51b815260206004820152603a60248201527f416464726573733a20756e61626c6520746f2073656e642076616c75652c207260448201527f6563697069656e74206d6179206861766520726576657274656400000000000060648201526084016100e7565b505050565b60006020828403121561030857600080fd5b5035919050565b60008219821115610349577f4e487b7100000000000000000000000000000000000000000000000000000000600052601160045260246000fd5b50019056fea2646970667358221220421d5c036e5b23969242297d7fa1ff387c901a6ee6898f5a6e586cbe7fd1266664736f6c634300080c0033a2646970667358221220353bc162ea75118c56ba55cd2209abe75b44049ff20bdab7c806cec1194001da64736f6c634300080c0033",
  "linkReferences": {},
  "deployedLinkReferences": {}
}