{
  "_format": "hh-sol-artifact-1",
  "contractName": "Lift",
  "sourceName": "contracts/levels/Lift.sol",
  "abi": [
    {
      "inputs": [],
      "name": "floor",
      "outputs": [
        {
          "internalType": "uint256",
          "name": "",
          "type": "uint256"
        }
      ],
      "stateMutability": "view",
      "type": "function"
    },
    {
      "inputs": [
        {
          "internalType": "uint256",
          "name": "_floor",
          "type": "uint256"
        }
      ],
      "name": "goToFloor",
      "outputs": [],
      "stateMutability": "nonpayable",
      "type": "function"
    },
    {
      "inputs": [],
      "name": "top",
      "outputs": [
        {
          "internalType": "bool",
          "name": "",
          "type": "bool"
        }
      ],
      "stateMutability": "view",
      "type": "function"
    }
  ],
  "bytecode": "0x608060405234801561001057600080fd5b50610207806100206000396000f3fe608060405234801561001057600080fd5b50600436106100415760003560e01c80634069536314610046578063caea459d14610062578063fe6dcdba14610077575b600080fd5b61004f60015481565b6040519081526020015b60405180910390f35b61007561007036600461018f565b610094565b005b6000546100849060ff1681565b6040519015158152602001610059565b6040516302f8cd6560e41b81526004810182905233908190632f8cd650906024016020604051808303816000875af11580156100d4573d6000803e3d6000fd5b505050506040513d601f19601f820116820180604052508101906100f891906101a8565b61018b5760018290556040516302f8cd6560e41b81526004810183905273ffffffffffffffffffffffffffffffffffffffff821690632f8cd650906024016020604051808303816000875af1158015610155573d6000803e3d6000fd5b505050506040513d601f19601f8201168201806040525081019061017991906101a8565b6000805460ff19169115159190911790555b5050565b6000602082840312156101a157600080fd5b5035919050565b6000602082840312156101ba57600080fd5b815180151581146101ca57600080fd5b939250505056fea26469706673582212207a8f3fcc1fe71d99057ef78ed41159bc4a2c0fba4db9f91c4b4a1938d170061864736f6c634300080c0033",
  "linkReferences": {},
  "deployedLinkReferences": {}
}